:020000040800F2
:10000000C8100020C1010008DF1B0008D318000839
:10001000DD1B0008E90200086D1F00080000000059
:10002000000000000000000000000000511D00085A
:10003000A503000800000000E11B0008531D000894
:10004000DB010008DB010008DB010008DB01000820
:10005000DB010008DB010008DB010008DB01000810
:10006000DB010008DB010008DB010008ED020008ED
:10007000DB010008DB010008DB010008DB010008F0
:10008000DB010008DB010008DB010008DB010008E0
:10009000DB010008DB010008DB010008DB010008D0
:1000A000DB010008DB010008DB010008DB010008C0
:1000B000DB010008DB010008DB010008DB010008B0
:1000C000DB010008DB010008DB010008DB010008A0
:1000D000DB010008DB010008DB010008DB01000890
:1000E000DB010008DB010008DB010008DB01000880
:1000F000DB010008DB010008DB010008DB01000870
:10010000DB010008DB010008DB010008DB0100085F
:10011000DB010008DB010008DB010008DB0100084F
:10012000F9020008DB010008DB01000805030008F4
:10013000DB010008DB010008DB010008DB0100082F
:10014000DB010008DB010008DB010008DB0100081F
:10015000110300081D030008DB010008DB01000893
:10016000DB010008DB010008DB010008DB010008FF
:10017000DB010008DB010008DB01000800000000D3
:10018000DB010008DB010008DB010008DB010008DF
:10019000DB010008DB010008DB010008DB010008CF
:1001A000DB010008DB010008DB010008DFF80CD0F0
:1001B00000F088F800480047492B0008C8100020CC
:1001C0000648804706480047FEE7FEE7FEE7FEE7F1
:1001D000FEE7FEE7FEE7FEE7FEE7FEE7ED1D0008AF
:1001E000AD0100082DE9F05F0546002092469B46D0
:1001F00088460646814640241BE02846414647463D
:10020000224600F04EF853465A46C01A914110D388
:1002100011461846224600F035F82D1A67EB010802
:100220004F4622460120002100F02CF817EB000970
:100230004E41201EA4F10104DFDC484631462A4627
:100240004346BDE8F09FD2B201E000F8012B491E01
:10025000FBD270470022F6E710B513460A46044663
:100260001946FFF7F0FF204610BD30B504460020C8
:10027000034600E05B1C934203D2E05CCD5C401B74
:10028000F8D030BD202A04DB203A00FA02F1002029
:1002900070479140C2F1200320FA03F319439040C4
:1002A0007047202A04DB203A21FA02F0002170472F
:1002B00021FA02F3D040C2F12002914008431946CE
:1002C00070470000064C074D06E0E06840F001036F
:1002D00094E8070098471034AC42F6D3FFF76AFF62
:1002E0000836000828360008FEE70000014800F044
:1002F0005DB80000040B0020014800F057B8000072
:10030000A40A0020014800F051B80000640B00204E
:10031000014800F04BB80000C40B0020014800F079
:1003200045B80000240C002001681823CAB2103A16
:10033000B2FBF3F2054B6FF30901032A9B5CC36523
:1003400000D9091D8165084670470000E6350008A0
:1003500010B5014600208B698A6A4FF0C07453B112
:10036000B3F5005F15D072B1012A0CD0022A0AD071
:10037000032A09D104E01AB1012A06D0022A03D1C6
:10038000C96AC90100D5012010BDC96AA142FAD0CD
:1003900010BD002AF7D0012AF2D0022AF3D0032A96
:1003A000F3D010BD704772B6FEE700002DE9F843A8
:1003B00004464FF00009CDF8009063484FF4165101
:1003C000A56D0068B0FBF1F72E6894F85C1008206A
:1003D00000FA01F131420FD021680A6852070BD5AB
:1003E0000A6822F004020A6094F85C108840A86051
:1003F000606D40F00100606594F85C104FF00108FA
:1004000008FA01F0304208D021684969090604D58C
:10041000A860606D40F00200606594F85C100420F4
:100420008840304208D021680968890704D5A8604F
:10043000606D40F00400606594F85C101020884006
:10044000304218D021680968090714D5A8602068CF
:100450000168490304D50068000308D5A16C07E0D2
:100460000168C90503D4016821F008010160216C0D
:1004700009B12046884794F85C102020884030421B
:1004800031D021680968C9062DD5A86094F83500D7
:1004900005282068016806D0490347D50068000395
:1004A0001DD4616C1CE021F01601016020684169D7
:1004B00021F080014161206C08B9A06C20B1206856
:1004C000016821F00801016094F85C103F20884029
:1004D000A86084F8349084F83580216D1FE0E16BCA
:1004E00009B120468847606D00282BD0606DC00799
:1004F00014D0052084F835002068016821F001013E
:1005000001600098401C0090B84203D82068006841
:10051000C007F6D184F8349084F83580E16C002966
:1005200010D001B02046BDE8F04308470168C90576
:10053000D5D4016821F01001016084F8349084F86A
:100540003580CCE7BDE8F883640000202DE9F04158
:10055000044600F095F906465CB1002584F8345055
:10056000022084F835002068016821F00101016053
:100570000DE00120BDE8F08100F082F9801B052824
:1005800005D920206065032084F83500F2E7206853
:100590000068C007F0D12268116820480140D4E902
:1005A00001031843D4E903363343184363691843FE
:1005B000A3691843E3691843236A18430843616A2F
:1005C000042903D1D4E90B131943084310602068B0
:1005D0004069666A20F0070130460E43012704286F
:1005E0000CD1A06A0643E06A40B12046FFF7B0FE96
:1005F00020B14020606584F83570BAE72068466114
:100600002046FFF791FE94F85C203F2191408160E5
:10061000656584F835700020ACE700003F8010F07D
:1006200070B5044600F02CF90546601C02D0044861
:100630000078044400F024F9401BA042FAD370BDB6
:10064000580000202DE9F84FDFF8F4A10022012422
:100650000AF1040B03254FF00F090BF1040E00BF44
:100660000B6804FA02F63340B3426FD10F7907F0FA
:100670000307012F01D0022F16D187684FEA4208E5
:1006800005FA08FC27EA0C07D1F80CC00CFA08FCA4
:100690004CEA070CC0F808C04768B7430E79C6F3A8
:1006A000001696403E4346600E79F643B6070AD0E0
:1006B000C7684FEA420C05FA0CF6B7438E6806FA93
:1006C0000CF63E43C6600E7906F00306022E10D1EA
:1006D000D60800EB8608D8F8206057074FEAD76C99
:1006E00009FA0CF7BE430F6907FA0CF73743C8F84D
:1006F000207006684FEA420C05FA0CF7BE430F79EA
:1007000007F0030707FA0CF7374307604E68F60057
:100710001CD54C4E376847F480473760366822F066
:10072000030706F480460096474E07EB060CDCF8FC
:10073000086897073F0F09FA07F826EA0806DFF866
:100740000C81404503D14FF0000841E072E0DFF832
:100750000081404502D14FF0010839E0DFF8F48014
:10076000404502D14FF0020832E0DFF8EC8040450E
:1007700002D14FF003082BE0DFF8E080404502D1C2
:100780004FF0040824E0DFF8D880404502D14FF054
:1007900005081DE0DFF8CC80404502D14FF0060887
:1007A00016E0DFF8C480404502D14FF007080FE0A3
:1007B000DFF8B880404502D14FF0080808E0DFF8C4
:1007C000B080404502D14FF0090801E04FF00A081F
:1007D00008FA07F848EA0608CCF80888DAF8006052
:1007E0005746D1F804C09E435FEACC3C00D51E4377
:1007F0003E60DBF800605F46D1F804C09E435FEACC
:100800008C3C00D51E433E60DEF800607746D1F890
:1008100004C09E435FEACC2C00D51E433E60084FC7
:100820000C373E68D1F804C09E435FEA8C2C00D59B
:100830001E433E60521C102AFFF412AFBDE8F88F31
:10084000003C0140443802400030014000000240BA
:100850000004024000080240000C02400010024068
:100860000014024000180240001C02400020024018
:10087000002402400AB1816170470904FBE70000CF
:1008800001488068704700005800002002488168D5
:100890000278114481607047580000200B4810B561
:1008A000016841F400710160016841F480610160F8
:1008B000016841F480710160032000F06FF80020AE
:1008C00000F006F800F024F8002010BD003C0240C3
:1008D00070B50D4D04464FF47A712878B1FBF0F0F5
:1008E0000A490968B1FBF0F000F021FF48B9102C6B
:1008F00007D200222146501E00F030F800206C6024
:1009000070BD012070BD0000580000206400002070
:100910000A4808B5016841F480410160006800F4AC
:10092000804000900548001F016841F0805101603F
:10093000006800F08050009008BD0000443802407C
:10094000002809DB00F01F020121914040098000CE
:1009500000F1E020C0F8001170470000F0B40E4B29
:100960001B680C46C3F30223C3F10705042D00D90D
:100970000425191D072901D2002300E0DB1E0126F2
:1009800006FA05F1491E214099409E40761E164008
:100990003143F0BC01F014BC0CED00E0064900F05E
:1009A000070208684FF6FF03184040EA0220034A96
:1009B00010430860704700000CED00E00000FA05ED
:1009C0002DE9F0470E46050065D0DFF81481D8F810
:1009D0000000F7B200F00F00B04207D288F80070B4
:1009E000D8F8000000F00F00B04254D128683D4C08
:1009F000810712D5400703D5206840F4E0502060FD
:100A00002878000703D5206840F460402060206803
:100A1000A96820F0F000084320602878C0072DD096
:100A2000304968680839012812D0022813D00328F9
:100A300011D00968890700292DDA216821F0030106
:100A400001432160FFF71CFF814641F2883A0EE026
:100A500009688903EFE709688901ECE7FFF710FFF0
:100A6000A0EB0901514502D90320BDE8F0872068B9
:100A7000696800F00C00B0EB810FEFD1D8F80010DE
:100A8000404601F00F01B14207D90770006800F03D
:100A90000F00B04201D00120E7E72878400705D5D4
:100AA0002068E96820F4E0500843206028780007B7
:100AB00006D52068296920F4604040EAC100206022
:100AC00000F038F82168084AC1F30311515CC840AE
:100AD0000649086006480068FFF7FAFE0020C4E7F0
:100AE000003C024008380240EE3500086400002057
:100AF0005C0000200448054900680968044AC1F305
:100B00008221515CC84070476400002008380240D0
:100B1000FE3500080448054900680968044AC1F325
:100B20004231515CC84070476400002008380240E0
:100B3000FE350008154810B5006810F00C02144886
:100B400013D01449042A0FD0082A0ED10F4C241FA9
:100B50002268236802F03F025B0207D52068C0F3D9
:100B60008810A0FB010106E0084610BD2168C1F312
:100B70008811A1FB00010023FFF734FB2168C1F3BA
:100B80000141491C4900B0FBF1F010BD083802409A
:100B90000024F40040787D012DE9F84F04006ED068
:100BA0002078DFF84C93C007A9F104054AD009F179
:100BB00004000168C1F38101012908D00068C0F375
:100BC000810002280AD1D9F80000400206D5286821
:100BD000800337D560680028E1D033E06068B0F565
:100BE000803F10D0B0F5A02F286810D020F48030BE
:100BF0002860286820F4802028606068A8B1FFF78A
:100C00003FFE06460DE0286840F48030F4E740F4EB
:100C100080202860F7E700BFFFF732FE801B6428C2
:100C200073D828688003F7D50CE0FFF729FE064645
:100C300005E000BFFFF724FE801B6428F0D8286879
:100C40008003F7D42078DFF8AC8280074FF0000AE9
:100C50003ED5A748001D016811F00C0F08D00068B0
:100C6000C0F3810002280BD1D9F80000400207D45C
:100C70002868800716D5E068012800D112E033E12A
:100C8000E068B8B10120C8F80000FFF7F9FD06469A
:100C900005E000BFFFF7F4FD801B0228C0D82868DC
:100CA0008007F7D52868216920F0F80040EAC100E4
:100CB00028600DE0C8F800A0FFF7E2FD064604E05A
:100CC000FFF7DEFD801B02281FD828688007F7D4B5
:100CD0002078000722D5864F87486169703771B147
:100CE00001210160FFF7CCFD064604E0FFF7C8FDD7
:100CF000801B022809D838688007F7D50EE0C0F8B5
:100D000000A0FFF7BDFD064605E082E0FFF7B8FD55
:100D1000801B02287DD838688007F7D420784007E8
:100D200068D5DFF8CCB100270BF13C0BDBF80000F5
:100D3000C0000BD4DBF8001041F08051CBF800105C
:100D4000DBF80000012700F0805000906B4E306807
:100D5000C00510D4306840F480703060FFF790FD1B
:100D6000009005E0FFF78CFD0099401A022850D84A
:100D70003068C005F6D55E4EA0686C3601280FD0ED
:100D80000528306810D020F001003060306820F075
:100D900004003060A068B8B1FFF772FD00900FE06A
:100DA000306840F00100F4E740F004003060F7E7FD
:100DB000FFF766FD0099411A41F28830814266D8FA
:100DC00030688007F4D50EE0FFF75AFD009007E089
:100DD000FFF756FD0099411A41F28830814256D8FA
:100DE00030688007F4D42FB1DBF8001021F0805177
:100DF000CBF80010A069C8B33D49091D0968C1F3CB
:100E0000810102294AD00228504607D0C8F8600064
:100E100000E03CE0FFF734FD04463BE04746C8F8FD
:100E20006000FFF72DFD064605E000BFFFF728FD37
:100E3000801B02282BD828688001F7D4D4E9070149
:100E40000843A16A2E4A490802EB0141626A41EA5D
:100E50008211084394F82C1040EA0161C9F800108F
:100E600001203866FFF70CFD044606E03EE000BFB7
:100E7000FFF706FD001B022809D828688001F7D576
:100E800034E000BFFFF7FCFC001B022802D903205E
:100E9000BDE8F88F28688001F4D427E00128F7D056
:100EA000D9F80000E26900F4800191421CD1226A65
:100EB00000F03F01914217D147F6C071626A0140CC
:100EC000B1EB821F10D1A26A4FF0FF3300F4403122
:100ED00003EB5202B1EB024F06D194F82C1000F054
:100EE0007060B0EB016F01D00120D1E70020CFE7A7
:100EF0000438024000004742800E47420070004024
:100F00000000FFFF70B5040009D0606A002540B101
:100F100025616561A56294F8510040B10CE00120A3
:100F200070BD6068B0F5827FF4D0E561F2E784F8C7
:100F30005050204600F044F8022084F85100206808
:100F4000016821F040010160A088218900F48270CD
:100F500001F404410843A18901F400610843217CA4
:100F600001F002010843217D01F001010843218BBA
:100F700001F400710843217F01F03801084394F81F
:100F8000201001F080010843218D01F40051084335
:100F900021680860A069042101EA104094F8241037
:100FA00001F010010843216848602068C16921F4FC
:100FB0000061C1616565012084F85100002070BDA9
:100FC0002DE9F04786B0054614216846FFF742F93F
:100FD0009E489D4B14382A6800249C490226071518
:100FE0004FF003084FF005099A422ED10A6842F4E7
:100FF00080520A60096801F480510591016841F04E
:1010000001010160006802AA00F001000590E020E3
:10101000CDE9000682E8100369468D48FFF712FB10
:101020008D4E8C4830604FF0C060C6E90104C6E9BF
:1010300003477461B461F461346230467462FBE06A
:10104000EE64B56306B0BDE8F087844BDFF8FCC101
:10105000DFF80CA2ACF1040C9A422ED1DCF800208F
:1010600042F48042CCF80020DCF8001001F480410A
:101070000591016841F004010160016801F004017B
:101080000591016841F002010160006802AA00F0C8
:10109000020005900C20CDE9000682E810036946A5
:1010A0005046FFF7CFFA02AA694682E81003CDE95D
:1010B00000766C48FFF7C6FAC4E76B4B9A422DD115
:1010C000DCF8002042F40042CCF80020DCF80010EC
:1010D00001F400410591016841F0040101600068DC
:1010E000029400F0040005904FF4E050CDE90006B2
:1010F0000620CDE9038069465046FFF7A3FA564E15
:101100005A486036C6E90004B460C6E90347746112
:10111000B461F4613462304674628DE0544B9A429B
:101120002BD10A6842F400520A60096801F40051A8
:101130000591016841F010010160006802AA00F009
:10114000100005906420CDE9000682E8100369468E
:101150004848FFF777FA3F483F4E4830C036306086
:101160004FF02060C6E90104C6E903477461B46129
:10117000F4613462304674625EE03F4B9A422BD198
:101180000A6842F480120A60096801F4801105912E
:10119000016841F020010160006802AA00F020000F
:1011A00005904FF46070CDE9000682E810036946AF
:1011B0003248FFF747FA2748314E783030604FF019
:1011C0006060C6E90104C6E903477461B461F46173
:1011D0003462304674622FE02A4B9A427FF46CAF3F
:1011E0000A6842F400120A60096801F400110591CE
:1011F000016841F040010160006802AA00F040006F
:1012000005904FF4E040CDE9000682E810036946FE
:101210001D48FFF717FA1A4E0E48603690303060BE
:101220004FF00070C6E90104C6E903477461B46178
:10123000F461346230467462FFF788F900283FF4A5
:10124000FFAEFFF7B0F8FBE6003001404438024043
:101250000000024010640240A40A00200038004050
:101260000008024000040240003C004010600240C0
:1012700000340140001002400050014000140240C0
:10128000C40B002000540140001802402DE9F84F23
:10129000044640680025984616460F464FF0040B5A
:1012A000B0F5827F01D1A06888B194F85000012880
:1012B00018D0012084F85000FFF7E2FA814694F834
:1012C00051004FF0000A01280ED0022582E084F878
:1012D00051B013460A462046CDF8008000F036F99A
:1012E000BDE8F88F0220FBE7002F72D0002E70D0EF
:1012F00084F851B0C4F854A0A763A687E687C4F861
:1013000030A0A4F834A0A4F836A0C4F840A0C4F8D3
:1013100044A0A068B0F5004F09D12068016821F011
:10132000400101602068016821F48041016020686B
:101330000168490603D4016841F040010160E0689A
:10134000D8B139E020688168C90709D0007BA16B5A
:101350000870A06B401CA063E08F401EE0870CE08B
:10136000FFF78EFAA0EB0901414503D3B8F1FF3F27
:1013700003D036E0B8F1000F33D0E08F0028E1D180
:101380001DE020688168C90709D0C068A16B08808A
:10139000A06B801CA063E08F401EE0870CE0FFF78D
:1013A0006FFAA0EB0901414503D3B8F1FF3F03D029
:1013B00017E0B8F1000F14D0E08F0028E1D14A46C1
:1013C0004146204600F00DFC08B120206065606DAC
:1013D00000B10125012084F8510084F850A028466E
:1013E0007EE70325F6E72DE9F84F044690F8500014
:1013F00000271D461646894601280DD04FF0010BE7
:1014000084F850B0FFF73CFA804694F85100BA4691
:10141000012804D0022793E00220BDE8F88FB9F13B
:10142000000F73D0002E71D0032084F85100C4F84F
:1014300054A0C4F83090A686E686C4F838A0A4F874
:101440003CA0A4F83EA0C4F844A0C4F840A0A06802
:10145000B0F5004F09D12068016821F0400101601A
:101460002068016841F480410160206801684906F4
:1014700003D4016841F040010160E068B0F5006FFD
:10148000606803D030B3012E24D041E008B1012EB2
:101490001CD1206B21680088C86006E02068816844
:1014A000890709D5216B0988C160206B801C2063E6
:1014B000E08E401EE08609E0FFF7E2F9A0EB0800AD
:1014C000A84202D3681C01D031E07DB3E08E002831
:1014D000E4D120E0206B21680078087306E02068E2
:1014E0008168890709D5216B09780173206B401C3D
:1014F0002063E08E401EE0860AE0FFF7C1F9A0EB12
:101500000800A84203D3681C02D010E017E06DB1B8
:10151000E08E0028E3D142462946204600F090FBA9
:1015200008B120206065A06818B106E0FFE7032736
:1015300006E02068C16880680090606D00B10127F6
:1015400084F851B084F850A0384666E72DE9F84F8A
:10155000044690F8500000270A9E1D4692468B468E
:101560004FF0010901280ED0012084F85000FFF748
:1015700087F9804694F85100616801280CD0B1F5D4
:10158000827F07D102E00220BDE8F88FA16809B987
:10159000042801D00227C2E0BBF1000F27D0BAF126
:1015A000000F24D01DB394F85100042802D0052068
:1015B00084F8510000206065C4F838A0E587A5874D
:1015C000C4F830B0E586A5862064606420680168B0
:1015D000490603D4016841F040010160E068B0F5BC
:1015E000006F606805D0E8B3012D46D07FE0012789
:1015F00095E008B1012D39D1206B21680088C860C1
:10160000206B801C2063E08E401EE0862EE0206868
:10161000816889070FD5E18E69B1B9F1010F0AD14F
:10162000216B0988C160206B801C2063E08E401E06
:10163000E0864FF0000920688168C9070CD0E18F6F
:1016400051B1C068A16B0880A06B801CA063E08FC3
:10165000401EE0874FF00109FFF712F9A0EB0800E8
:10166000B04200E009E001D3701C50D1E08E0028A8
:10167000CDD1E08F0028CAD13FE0206B21680078EF
:101680000873206B401C2063E08E401EE0862EE035
:101690002068816889070FD5E18E69B1B9F1010F22
:1016A0000AD1216B09780173206B401C2063E08E06
:1016B000401EE0864FF0000920688168C9070CD001
:1016C000E18F51B1C068A16B0870A06B401CA06392
:1016D000E08F401EE0874FF00109FFF7D1F8A0EB43
:1016E0000800B04202D3701C01D010E07EB1E08E41
:1016F0000028CDD1E08F0028CAD14246314620468D
:1017000000F09EFA28B101272020606507E003273A
:1017100005E0A06818B92068C168806800900120C1
:1017200084F85100002084F8500038462CE710B5AA
:10173000401EB0F1807F01D3012010BD4FF0E024A6
:1017400060610F21601700F03BFD0020A0610720C1
:101750002061002010BD70B5040004D094F83D0055
:10176000002510B106E0012070BD84F83C502046F1
:1017700000F022F8242084F83D002068C16821F49C
:101780000051C160204600F039FB2068016921F456
:10179000904101612068416921F02A01416120687E
:1017A000C16841F40051C1602564202084F83D00E7
:1017B00084F83E00002070BD10B586B004461421A8
:1017C0006846FEF747FD1349206888421FD112483A
:1017D000016841F400210160006800F400200590D8
:1017E0000D481038016841F00101016000680221D4
:1017F00000F0010005900320CDE900010121CDE9B1
:1018000002100820049069460448FEF71BFF06B04A
:1018100010BD0000004C0040403802400000024073
:101820002DE9F843044690F83D001F4616460D4644
:1018300020284CD1C5B1BEB194F83C00012846D057
:10184000012084F83C004FF00008C4F840802120BB
:1018500084F83D00FFF714F8A6848146E684A0686A
:10186000B0F5805F03D004E00120BDE8F883206973
:1018700028B12E465FF0000584F83C800EE000267B
:10188000FAE78021204600F03FFBA0B9AEB116F880
:10189000010B21684860E08C401EE084E08C4B46E0
:1018A0004FF0000200970028EBD14FF04001204696
:1018B00000F02AFB30B10320D7E735F8020BC0F364
:1018C0000800E6E7202084F83D000020CDE7022054
:1018D000CBE7FEE71D4808B5016841F480010160CF
:1018E000016801F480010091016841F40011016078
:1018F0000068002200F40010009011460B20FFF752
:101900002DF80B20FFF71CF8002211463820FFF7B6
:1019100025F83820FFF714F8002211463B20FFF786
:101920001DF83B20FFF70CF8002211464420FFF77A
:1019300015F84420FFF704F8002211464520FFF770
:101940000DF8BDE808404520FEF7FABF30380240E8
:10195000F0B587B014216846FEF77CFC2D480024C2
:10196000016841F010010160016801F0100105916A
:10197000016841F020010160016801F0200105913A
:10198000016841F080010160016801F0800105916A
:10199000016841F004010160016801F00401059152
:1019A000016841F001010160016801F00101059148
:1019B000016841F002010160016801F00201059136
:1019C000016841F0400101600068134E00F04000E2
:1019D00040F603050590002229463046FEF74AFFEF
:1019E0000E4F002201213846FEF744FF00950125E5
:1019F000CDE90154694630460394FEF723FE009575
:101A0000CDE90154694638460394FEF71BFE07B042
:101A1000F0BD0000303802400004024000180240CF
:101A20000E4810B50C490160002141608160C16021
:101A30004FF400720161C0E90512016241628162E6
:101A40000A21C162FFF75EFA002803D0BDE810400A
:101A5000FEF7A9BC10BD0000003001409408002032
:101A60000F4810B50D4901604FF4827141600021AB
:101A70008160C1604FF400720161C0E90512C1616B
:101A80000162416281620A21C162FFF73BFA0028CC
:101A900003D0BDE81040FEF786BC10BD0038004002
:101AA000EC0800200E4810B50C490160002141608F
:101AB0008160C1604FF400720161C0E905120162EA
:101AC000416281620A21C162FFF71CFA002803D03B
:101AD000BDE81040FEF767BC10BD0000003C0040B0
:101AE000440900200E4810B50C49016000214160F6
:101AF0008160C1604FF400720161C0E905120162AA
:101B0000416281620A21C162FFF7FCF9002803D01B
:101B1000BDE81040FEF747BC10BD00000034014096
:101B20009C0900200E4810B50C490160002141605D
:101B30008160C1604FF400720161C0E90512016269
:101B4000416281620A21C162FFF7DCF9002803D0FB
:101B5000BDE81040FEF727BC10BD0000005001405A
:101B6000F40900200E4810B50C49016000214160C5
:101B70008160C1604FF400720161C0E90512016229
:101B8000416281620A21C162FFF7BCF9002803D0DB
:101B9000BDE81040FEF707BC10BD00000054014036
:101BA0004C0A00200C4810B50A4901604FF4E1319D
:101BB0004160002181600C22C160C0E90412816192
:101BC000C161FFF7C8FD002803D0BDE81040FEF753
:101BD000EABB10BD004C0040840C0020FEE7FEE78D
:101BE0007047F8B5044640684FF48273984221D19B
:101BF000A0684FF48065B0F5004F01D0A8420AD12B
:101C00002068066826F0400606606068984211D198
:101C1000A068A8420ED000920B46002280212046E8
:101C200000F03AF8002804D0606D40F020006065B4
:101C30000320F8BD00920B4600220121EFE70000CF
:101C400038B504461248134B0068B0FBF3F04FF46C
:101C50007A73584300906068B0F5827F0DD10B46CF
:101C6000009200228021204600F016F870B1606DCD
:101C700040F020006065032038BD009830B1401E60
:101C8000009020688068C0430006F6D5002038BD6B
:101C90006400002000366E012DE9F8431E4691468F
:101CA00088460446089DFEF7EBFD401B351AFEF7FB
:101CB000E7FD074625480068C0F3CB30684338E0AD
:101CC000701C37D0FEF7DCFDC01BA84203D215B153
:101CD000009860B32CE02068416821F0E001416089
:101CE0006068B0F5827F0BD1A068B0F5004F02D0DC
:101CF000B0F5806F04D12068016821F040010160D7
:101D0000A06AB0F5005F09D12068016821F4005194
:101D100001602068016841F400510160012084F8ED
:101D20005100002084F850000320BDE8F88300250E
:101D3000401E00902068816838EA010004D000212C
:101D40004945BDD10020F0E70121F9E764000020FA
:101D50007047FEF79BBD000030B593B03021684658
:101D6000FEF778FA14210CA8FEF774FA1D48002536
:101D7000016841F080510160006800F080501190CE
:101D80001948016821F4404141F480410160006834
:101D9000022400F440401190012003901020009490
:101DA00006940490CDE90750C020CDE90904042031
:101DB0000B906846FEF7F0FE08B172B6FEE70CA97C
:101DC0000F2081E831004FF4A0500F9010900321B4
:101DD0000CA8FEF7F5FD002801D072B6FEE713B09F
:101DE00030BD0000403802400070004002480168E9
:101DF00041F470010160704788ED00E070B5044661
:101E000000680169E26821F44051114301612169D0
:101E1000A068E26908436169114308432168CA6800
:101E200049F20C639A430243CA6020684169A2697F
:101E300021F440711143416131492068884202D048
:101E40003049884202D1FEF765FE01E0FEF752FEFE
:101E5000E2690023192164253226B2F5004F626839
:101E600028D0A0FB0101930F9200FEF7BBF90146B9
:101E7000B0FBF5F06FF01802504301EB800006EB69
:101E80000010B0FBF5F000F0F002B1FBF5F002EB52
:101E90000012B1FBF5F06FF01803584301EB80001E
:101EA00006EB0010B0FBF5F000F00F0021681044C5
:101EB000886070BDA0FB010192185B41FEF792F9AA
:101EC0000146B0FBF5F00201B1FBF5F06FF018032D
:101ED000584301EB800006EBC000B0FBF5F000F0CA
:101EE000F80002EB4002B1FBF5F0584301EB800033
:101EF00006EBC000B0FBF5F000F00700D6E70000ED
:101F000000100140001401402DE9F04198461746A9
:101F10000E460446069D1DE0681C1BD02DB1FEF741
:101F2000AFFCA0EB0800A84214D92068C16821F4D6
:101F3000D071C1602068416921F001014161202018
:101F400084F83D0084F83E00002084F83C00032023
:101F5000BDE8F0812068006836EA000004D0002067
:101F6000B842D9D00020F3E70120F9E7FEE70000EE
:101F70000A4601464FF0FF330148FFF787B90000DA
:101F8000EC08002008B501216846FFF7F1FF9DF835
:101F9000000008BD10B50A4C002201212046FEF7C2
:101FA00069FC0120FEF73CFB012211462046FEF7AA
:101FB00061FCBDE810404FF4C860FEF731BB000083
:101FC0000004024000224FF400610148FEF752BCB9
:101FD000000402400122D1020148FEF74BBC000080
:101FE000000402400A4601464FF0FF330148FFF764
:101FF000FAB90000EC08002001B501216846FFF79E
:10200000F1FF08BDF8B5144C0546A068804720696B
:102010008047216AC5F30740C5F3072699B1626A74
:102020008AB18DF800008DF801608DF8025003210F
:1020300068469047A0698047054660698047E06828
:1020400080472846F8BDE1698847E16930468847FE
:10205000E169E8B28847EDE7180000202DE9F84370
:102060001A4C05461746A068884680472069804775
:10207000216AC5F30740C5F30726A1B1626A92B190
:102080008DF800008DF801608DF80250032168463C
:102090009047226A39464046904760698047E06829
:1020A0008047BDE8F883E1698847E16930468847A1
:1020B000E169E8B28847002505E0A069804708F893
:1020C00005006D1CADB2BD42F7D3E6E71800002055
:1020D000F8B5164C05460E46A06880472069804733
:1020E000626A45F004058AB1280C8DF80000280AC0
:1020F0008DF801008DF802508DF8036004216846C8
:10210000904760698047E0688047F8BDE169C5F3A2
:1021100007408847E169C5F307208847E169E8B2CD
:102120008847E16930468847EBE700001800002047
:10213000F8B51A4C05461646A0680F468047206938
:102140008047626A45F004059AB1280C8DF80000BA
:10215000280A8DF801008DF8025003216846904747
:10216000626A31463846904760698047E068804738
:10217000F8BDE169C5F307408847E169C5F3072069
:102180008847E169E8B28847002504E0E169785DA5
:1021900088476D1CADB2B542F8D3E5E718000020C2
:1021A0000FB4054B10B503A9044A029800F028F8B3
:1021B00010BC5DF814FB000099280008680000209E
:1021C0000907090E002804DB00F1E02080F8001464
:1021D000704700F00F0000F1E02080F8141D7047F8
:1021E00002E008C8121F08C1002AFAD170477047E0
:1021F000002001E001C1121F002AFBD1704700003E
:102200002DE9FF4F8DB00F460546002606E0252834
:102210000BD0DDE90F1290476D1C761C2878002842
:10222000F5D111B03046BDE8F08F0024A246A1469A
:102230000122EC4900E0044315F8013F203B02FA7B
:1022400003F00842F7D128782A2810D06FF02F0227
:102250002878A0F13001092914D80AEB8A0102EB91
:10226000410144F0020400EB010A6D1CF0E701CFCC
:102270005FEA000A03D544F40054CAF1000A44F0AE
:1022800002046D1C28782E2817D115F8010F44F090
:1022900004042A280ED06FF02F022878A0F1300114
:1022A00009290AD809EB890102EB410100EB010978
:1022B0006D1CF2E757F8049B6D1C28786C280FD032
:1022C00006DC4C2817D068280DD06A2814D104E009
:1022D000742810D07A280FD10DE044F400140AE0DD
:1022E00044F4801401E044F440146978814202D13E
:1022F00004F580146D1C6D1C2A786E2A1FD00CDC2E
:10230000632A31D004DC002A8BD0582A11D1A3E0F3
:10231000642A68D0692A0CD165E0732A2ED004DCC7
:102320006F2A73D0702A04D19BE0752A6FD0782A67
:102330006ED01046DDE90F129047761C50E1C4F3D1
:102340000250022806D0032809D0042801CF09D062
:10235000066045E101CFF117C0E9006140E101CF1E
:1023600006803DE106703BE117F8040B8DF8000094
:1023700000208DF80100EB46012003E057F804BB74
:102380004FF0FF3061074FF0000102D40DE008F17B
:102390000101884649450FDA8045F8DB1BF8081033
:1023A0000029F4D108E008F1010188468142FADBF6
:1023B0001BF808100029F6D1DDE90F23AAEB08006D
:1023C0008146214600F036F9304400EB080604E06F
:1023D000DDE90F121BF8010B9047B8F10108F7D2A5
:1023E00021464846F7E00A21C4F302534FF0000BA0
:1023F0000891022B04D001CFC117032B09D00AE0AA
:10240000FF1D27F00707F7E8020108E032E01FE0B0
:1024100020E000B2C117042B01D140B2C117031E46
:1024200071F1000307DA4FF0000CD0EB0C006CEBFD
:1024300001012D2302E0230504D52B238DF8243040
:10244000012303E0E30701D02023F7E7984658E093
:102450000A2110E010210EE010204FF0000B089030
:102460000CE010214FF0000B44F004044FF0080979
:10247000089103E008214FF0000B0891C4F30253C8
:10248000022B04D001CF0021032B06D006E0FF1D54
:1024900027F00707F7E8020103E080B2042B00D120
:1024A000C0B24FF0000823072BD5702A07D0DDF803
:1024B00020C08CF0100C5CEA0B0C05D00EE0402321
:1024C0008DF82430012308E050EA010306D03023C0
:1024D0008DF824308DF8252002239846DDF820C0A1
:1024E0008CF0080C5CEA0B0C0BD150EA010301D113
:1024F000630706D530238DF824304FF00108A9F189
:102500000109582A04D038A20B9208AA0A920BE0BB
:102510003AA2F9E75B46089AFDF764FE0B9B9B5CC9
:102520000A9A521E0A92137050EA0102F2D10A98D6
:10253000ADEB000000F1200B600702D524F48034DD
:1025400001E04FF00109D94502DDA9EB0B0000E0E5
:10255000002000EB0B0141440890AAEB010AE003C4
:1025600006D4DDE90F232146504600F063F8064407
:102570004FF0000908E009A911F80900DDE90F1280
:10258000904709F10109761CC145F4DBE0030CD545
:10259000DDE90F232146504600F04CF8064404E0E4
:1025A000DDE90F1230209047761C0899481E0890EC
:1025B0000029F5DC08E00A980A990078491C0A917C
:1025C000DDE90F129047761CBBF10001ABF1010B66
:1025D000F1DC21465046DDE90F2300F019F80644EE
:1025E0006D1C1BE609280100303132333435363793
:1025F000383961626364656600000000303132334F
:1026000034353637383941424344454600000000EE
:102610002DE9F041044600251E461746880404D4DF
:1026200005E039462020B0476D1C641EF9D52846C8
:10263000BDE8F0812DE9F041044600251E46904694
:10264000C80301D5302700E02027880404D505E021
:1026500041463846B0476D1C641EF9D52846BDE892
:10266000F081000070B50446082802D94FF0FF3011
:1026700070BD4FF4847000EB441005461021FFF745
:1026800027FD2846FFF7BEFC0028FAD14FF4027060
:1026900000EB44101F21FFF71BFD0D490120A04056
:1026A0004A8882434A808A8882438A800949002076
:1026B00021F814000649891D08554FF4427000EBBB
:1026C00044142046FFF79EFC0028FAD1012070BD7B
:1026D000000000206C00002010B50C4606281ED219
:1026E000DFE800F003070B101418204600F04EFE40
:1026F00013E0204600F0BCFD0FE02078BDE810405C
:1027000000F070BE00F0E0FD207006E0204600F012
:102710007BFE02E0204600F0DAFD002010BD4FF005
:10272000FF3010BD2DE9F0410C46002102464F1E3E
:1027300008464FF498554FF4A056102A61D2DFE8AE
:1027400002F0080B17131A1E222C3643464A574E26
:10275000535A00F070FE4BE014B1204604F108011A
:10276000BDE8F04100F0C7BD208800F050FD3FE01B
:1027700000F060FD05E0208800F0FAFD38E000F090
:1027800068FD208034E02088010A2846FFF7A0FC7D
:1027900021783046FFF79CFC2AE03046FFF732FCF8
:1027A00006462846FFF72EFC06EB0020E9E7164810
:1027B00082782270C27862700279A2704279E270E7
:1027C00080792071617113E000F0ABFE10E02046CB
:1027D00000F0BCFE0CE0204600F067FE08E0207828
:1027E000BDE8F04100F0D7BE00F08FFE05E020709C
:1027F0000020BDE8F08100F07FFEC0B241B2491C6C
:10280000F5D13846F5E700001800002070B5044601
:10281000082802D94FF0FF3070BD60010125083053
:10282000FFF7F0FB00F00F00012801D0A81F70BDDA
:102830004FF4847000EB441006460821FFF748FC73
:102840003046FFF7DFFB0028FAD11248A540818807
:10285000A9438180408805420CD0002070BD3046DD
:10286000FFF7D0FB00070DD52046FFF7FBFE6FF00A
:102870000C0070BD4FF4027000EB44164FF4427030
:1028800000EB44152846FFF7BDFB0028E7D10120E7
:1028900070BD00000000002013B54FF6FF73012249
:1028A00069460248FEF7BCFF00981CBD840C00205E
:1028B0002DE9F04142F2086101EB401542F2087146
:1028C000002601EB40142846FFF79CFB07462046F4
:1028D000FFF798FB00EB072007043F0C09D02846C0
:1028E000FFF790FB06462046FFF78CFB00EB062027
:1028F00086B2BE42E7D13046BDE8F0812DE9F04115
:1029000042F2080101EB401542F20811002601EBEA
:1029100040142846FFF776FB07462046FFF772FB78
:1029200000EB072007043F0C09D02846FFF76AFB9D
:1029300006462046FFF766FB00EB062086B2BE4245
:10294000E7D13046BDE8F08170B50546082802D9C8
:102950004FF0FF3070BD68010830FFF753FB00F007
:102960000F00012802D06FF0040070BD4FF44270D8
:1029700000EB45100646FFF745FB132802D06FF029
:10298000020070BD4FF4847000EB45100446022134
:10299000FFF79EFB2046FFF735FB0028FAD103E046
:1029A0002046FFF72FFB30B13046FFF72BFB1428F2
:1029B000F6D1012070BD2846FFF754FE6FF00300EA
:1029C00070BD00002DE9FF4104464FF442701646E9
:1029D0008846002500EB4410FFF714FB002877D051
:1029E000132869D0172802D01C2879D15AE04FF457
:1029F000027000EB44100646FFF704FBC0072AD024
:102A000040F6084000EB4410042203A9FFF726FB20
:102A100041F2081000EB4410FFF7F4FA074641F2C8
:102A2000080000EB4410FFF7EDFA07EB00209DF8DB
:102A30000E2080B29DF80F100092CDE901109DF894
:102A40000D309DF80C20214626A0FFF7A9FB30464B
:102A50000121FFF73DFB2046FFF72AFF02003FD090
:102A60004FF40060824200D902464146204600F001
:102A7000ADF900280EDD87B211E0781B82B208EBB9
:102A80000501204600F03CFA060006D52046FFF777
:102A9000E9FD304604B0BDE8F081284485B2AF427C
:102AA000EBD11DE02046FFF7B1FE0128F2D121460F
:102AB00015A0FFF775FB13E03246214617A0FFF77C
:102AC0006FFB2046FFF740FF0128E3D108E0FFE756
:102AD000002332460121204600F0A0FAA042D9D1BD
:102AE0000120D7E725643A436F6E6E6563746564B1
:102AF000202D2025642E25642E25642E2564203A61
:102B00002025640D0A00000025643A536F636B654D
:102B10007420436C6F7365640D0A000025643A4CA1
:102B2000697374656E2C205443502073657276650A
:102B300072206C6F6F706261636B2C20706F7274A7
:102B4000205B25645D0D0A008AB0FDF7A7FE4AA050
:102B5000FFF726FBFFF700F9FEF7FAFEFEF7BAFED5
:102B6000FEF75EFFFEF77CFFFEF79CFFFEF7BAFF65
:102B7000FEF7D8FFFEF7F6FFFFF714F8A020FDF7E9
:102B80004FFD4049404800F093F94049404800F06B
:102B9000A1F9FFF7FFF93F490020FFF79DFD3E49EE
:102BA0000120FFF799FD3C493A4800F0C3FA01289B
:102BB0005FD03AA0FFF7F4FA3EA30DF10C0C0FCB57
:102BC0008CE80F0003A90120FFF7ACFD10B13DA078
:102BD000FFF7E6FA42A0FFF7E3FA2E490020FFF7DD
:102BE0007BFD2C490120FFF777FD07A90820FFF79F
:102BF00099FD07A93DA0FFF7D3FA264CE07862794A
:102C000021798DE80700A378627821783DA0FFF74D
:102C1000C7FA607A0090237AE279A17943A0FFF79E
:102C2000BFFA607C0090237CE27BA17B44A0FFF78D
:102C3000B7FA607B0090237BE27AA17A45A0FFF788
:102C4000AFFA607D0090237DE27CA17C46A0FFF777
:102C5000A7FA4AA0FFF7A4FA41F2883422464E4967
:102C60000020FFF7AFFE0100F8D54CA0FFF798FA5F
:102C7000F4E750A09EE70000496E69742073746108
:102C800072742100D51F0008C51F0008F91F000835
:102C9000851F0008400000207C0800204E6574203D
:102CA000696E666F20736574206661696C65642166
:102CB0000A000000020202020202020202020202F2
:102CC000020202026275666665722073697A652087
:102CD000736574206661696C6564210A00000000F8
:102CE000496E697420446F6E652100000D0A3D3DF8
:102CF0003D202573204E455420434F4E46203D3DF8
:102D00003D0D0A004D41433A20253032583A2530D6
:102D100032583A253032583A253032583A25303236
:102D2000583A253032580D0A000000005349503AF5
:102D30002025642E25642E25642E25640D0A0000AE
:102D40004741523A2025642E25642E25642E2564A1
:102D50000D0A00005355423A2025642E25642E2585
:102D6000642E25640D0A0000444E533A2025642E3B
:102D700025642E25642E25640D0A00003D3D3D3D51
:102D80003D3D3D3D3D3D3D3D3D3D3D3D3D3D3D3D73
:102D90003D3D0D0A000000007C000020534F434BD6
:102DA0004554204552524F52203A20256C640D0A5A
:102DB000000000004E657420696E666F20736574B4
:102DC0002073756363657373210A00002DE9F74F63
:102DD00014460546082803D94FF0FF30BDE8FE8FA2
:102DE000680101260830FFF70DF900F00F000128F7
:102DF00001D0B01FF2E724B341F6086000EB4510A4
:102E0000FFF700F94FF6FF7101EA8020A04200D2DF
:102E100004464FF4427000EB451841F60870DFF8A5
:102E20008CA000EB451B06FA05F92846FFF740FD8C
:102E300006464046FFF7E6F8172816D01C2803D0B0
:102E40000DE06FF00D00C9E7CEB92846FFF756FD3B
:102E500007465846FFF7D6F8B7EB802F05D128462E
:102E6000FFF700FC6FF00600B8E7BAF8021019EAA5
:102E7000010F02D01EB90020B0E7002ED5D0A64227
:102E800000D2344622462846019900F05CF94FF4FE
:102E9000847000EB451005464021FFF719F92846DC
:102EA000FFF7B0F80028FAD1204697E7000000208D
:102EB000054A18B111B1C2E9040170470348106115
:102EC00003485061704700001800002033320008AA
:102ED00031320008074A10B513889C05FDD518B19A
:102EE00011B1C2E9060110BD034890610348D061E9
:102EF00010BD0000180000203134000835340008EF
:102F00002DE9F05F15468B460646082803D94FF099
:102F1000FF30BDE8F09F700101240830FFF772F820
:102F200000F00F00012801D0A01FF2E775B14FF4A7
:102F3000427000EB46100746FFF764F86FF0060A90
:102F4000172806D01C2804D05046E2E76FF00D0089
:102F5000DFE7DFF8C480B440B8F80400044213D0BF
:102F60004FF4027000EB46108146FFF74BF800F07B
:102F70001F00C10624D548461021FFF7A9F8B8F86C
:102F80000410A143A8F8041041F6087000EB4610A5
:102F9000FFF738F84FF6FF7101EA8020854200D92B
:102FA00005463046FFF7AAFC81463846FFF72AF867
:102FB00017280DD01C280BD03046FFF753FBC3E772
:102FC00000070BD53046FFF74DFB6FF00C00A0E774
:102FD000B8F80200044203D04D4501D9002098E71B
:102FE0004D45DED82A465946304600F0DCF84FF40D
:102FF000847000EB461006462021FFF769F8304642
:10300000FFF700F80028FAD1B8F8041028460C435E
:10301000A8F804407DE70000000000202DE9F843F7
:103020001D4617460E460446082803D94FF0FF30C8
:10303000BDE8F883012E06D0022E0CD0042E0AD053
:103040006FF00400F4E7042269464FF47060FFF764
:1030500005F8009848B169076FF00500E8D49DB104
:10306000012E05D0022E0FD106E06FF00200DFE73F
:1030700015F0210FDCD007E0A90601D52906D7D528
:10308000E90601D52906D3D52046FFF7EBFA600102
:1030900005F0F0014FF0010831430830FFF718F850
:1030A000224E57B93788781C80B2A0F57F41308016
:1030B000F03902D14FF4404030804FF48160390A3A
:1030C00000EB4410FFF704F84FF4A160F9B200EBF5
:1030D0004410FEF7FDFF4FF4847000EB44100746E8
:1030E0000121FEF7F5FF3846FEF78CFF0028FAD1E4
:1030F00008FA04F0718805F001028143A2400A43F6
:103100007280B1888143B1800949002021F8140000
:103110000649891D08554FF4427000EB44152846B6
:10312000FEF770FF0028FAD060B281E700000020AF
:103130006C00002010B51722FDF797F808B10020A9
:1031400010BD012010BD2DE9F0475FEA0208894655
:10315000064626D042F6081000EB46152846FEF734
:1031600051FF074642F6080000EB46142046FEF7E2
:1031700049FF07EB002087B2380200EB46104246B9
:1031800049461830FEF76AFF07EB080086B2310A9D
:103190002046FEF79DFFF1B22846BDE8F047FEF756
:1031A00097BFBDE8F0872DE9F0475FEA020889463E
:1031B000064626D042F2085000EB46152846FEF798
:1031C00021FF074642F2084000EB46142046FEF776
:1031D00019FF07EB002087B2380200EB4610424689
:1031E00049461030FEF7A4FF07EB080086B2310A0B
:1031F0002046FEF76DFFF1B22846BDE8F047FEF726
:1032000067BFBDE8F087007870470170704710B560
:10321000040A00F0F0014FF4A850FEF759FF2146D0
:10322000BDE810404FF4B850FEF752BF70477047EA
:103230007047704710B54FF4A850FEF7E3FE00F05A
:10324000F0044FF4B850FEF7DDFE04EB002080B22E
:1032500010BD10B54FF4B050FEF7D4FE04464FF445
:10326000C050FEF7CFFE04EB002080B210BD00007E
:1032700010B50446014606224FF41060FEF7EEFE3C
:10328000042204F10E019001FEF7E8FE042204F18D
:103290000A014FF4A060FEF7E1FE0422A11D4FF4E5
:1032A0007060FEF7DBFE07480178A1744178E17495
:1032B00081782175C07860750248401E0078A0753D
:1032C00010BD0000110000200020FEF79BBE70B56D
:1032D00004464FF4D850FEF795FE20704FF4D050BE
:1032E000FEF790FE05464FF4C850FEF78BFE05EB47
:1032F0000020608070BD2DE9F0410D460646002497
:1033000000F099F84FF0FF38AEB10022B05C2044D5
:1033100044B2102C17DC521C52B2082AF6DB0024EF
:1033200041F60877315D07EB4410FEF7D1FE641CCF
:1033300064B2082CF6DBCDB1002108462A5C1144AA
:1033400049B2102902DD4046BDE8F081401C40B280
:103350000828F3DB002441F60866295D06EB4410DB
:10336000FEF7B6FE641C64B2082CF6DB0020EBE727
:1033700010B5C1B2040A4FF4B050FEF7A9FE2146C1
:10338000BDE810404FF4C050FEF7A2BE10B5044691
:10339000014606224FF41060FEF7CAFE042204F133
:1033A0000E019001FEF7C4FE042204F10A014FF45D
:1033B000A060FEF7BDFE0422A11D4FF47060FEF771
:1033C000B7FE0748A17C0170E17C4170217D8170CE
:1033D000617DC1700249A07D491E087010BD0000CA
:1033E0001100002010B5044630F03A0002D04FF032
:1033F000FF3010BD0020FEF705FE40EA040100206A
:10340000FEF766FE002010BD10B5044601784FF4AB
:10341000D850FEF75DFE6088010A4FF4C850FEF7F1
:1034200057FEA178BDE810404FF4D050FEF750BED3
:10343000002070477047F0B585B04FF41064062245
:1034400069462046FEF70AFE0422950102A9284695
:10345000FEF704FE4FF4A066042203A93046FEF7EF
:10346000FDFD4FF47067042204A93846FEF7F6FD0F
:1034700080210020FEF72CFE0020FEF7C3FD06226F
:1034800069462046FEF754FE042202A92846FEF7AC
:103490004FFE042203A93046FEF74AFE042204A987
:1034A0003846FEF745FE05B0F0BD10B504464FF4B2
:1034B0003850FEF7A7FDC0F38011217000F03800EE
:1034C00001220021202811D038280FD06170102847
:1034D0000ED018280CD020280AD0A170082809D0B6
:1034E000182807D0202805D0E17010BD6270EEE7E3
:1034F000A270F3E7E27010BD10B54FF43850FEF73C
:1035000081FDC00700D0012010BD10B500244FF48C
:103510003850FEF777FD10F0300F00D00124204620
:1035200010BD10B54FF438542046FEF76BFD20F067
:1035300080012046FEF7CCFD2046FEF763FD40F0FB
:1035400080012046BDE81040FEF7C2BD10B50278EC
:103550000021012A00D140214278012A06D0C278F8
:103560008078012A05D001280BD00CE041F0380109
:1035700009E0012802D041F0080104E041F01801FF
:1035800001E041F010014FF43850FEF7A1FDBDE815
:103590001040FFF7C6BF70B504464FF438563046AA
:1035A000FEF730FD41064FF0FF351AD520F0380008
:1035B000012C10D040F038013046FEF789FDFFF7AE
:1035C000B0FF3046FEF71EFD012C07D000F038009A
:1035D00038B1002070BD40F03001EDE700F0300060
:1035E000F6E7284670BD000610160006101600000B
:1035F00000000000000001020304060708090000A3
:10360000000001020304000028360008000000202A
:103610006C000000E0210008943600086C000020D7
:103620005C100000F021000800C000000000000055
:10363000000000000000000000000000000000008A
:1036400001025735353030002D3200082F32000886
:103650003332000831320008073200080B3200080C
:1036600000000000000000000008DC111111C0A8DB
:1036700001BCFFFFFF00C0A80101909090900100E5
:103680000100000010000000000000000024F40011
:043690000000000036
:04000005080001AD41
:00000001FF
